:1000000016C0BFC0FDCFFCCFFBCFFACF55C1F8CF94
:10001000F7CFF6CF00000000003C00020000000017
:10002000080004001400040098001C000000F8946C
:10003000EE27ECBBE5BF8DE0A2E0ED938A95E9F7F2
:1000400080E4A0E6ED938A95E9F7E0E2F0E0C89558
:100050003196802DC8953196902D0097B9F0C895AE
:100060003196A02DC8953196B02DC8953196102C9B
:10007000C89531966E2F7F2FF02DE12DC8953196C2
:100080000D920197D9F7E62FF72FE1CFE7E9EDBF02
:10009000C2E719C0A0E0B0E02BD04E2EE0E8E6BDEC
:1000A000E0E0E6BDE1E0E7BBEBE1E8BBE0E4EBBFAD
:1000B000E2E0E5BFE0E4EABFE0E8E8B9E0E0E3B9A8
:1000C000E4BBE6B90895F894E5DF7AD078941BD0C4
:1000D000B0D0FDCFFFCFFDD00A2F1B812C81E1993D
:1000E000FECF1EBB0DBBE29AE19AF7D0259608958C
:1000F000F1D00A2F1B2FE199FECF0EBBE09AEDB392
:10010000099119910895662031F1E52DF0E0E13073
:10011000A0E0FA0731F4CED0E53110F0A4E1C5D06B
:1001200018C0E230A0E0FA0731F4C4D0E43610F48D
:10013000A4E1B7D00EC0E330A0E0FA0741F4E0E05C
:10014000F0E0FA93EA93B6D0AE2FC5DF02C0552493
:100150000895662455240895B9D0E87019F0B6D0F2
:10016000E07109F402C0E3E00895B0D0E87011F046
:10017000E1E00895ABD0E07111F0E2E00895E0E035
:1001800008950A921A92FA926A937A938A939A93AA
:10019000AA93BA93EA93FA93EFB7EA93DDDF5E2E60
:1001A000E1E06E2EE991EFBFF991E991B991A99142
:1001B0009991899179916991F9901990099018957F
:1001C000E0917200E03009F00895E2E4EFBDE3E071
:1001D000E3BFE0E0E2BFE9BDEFEFE91511F4ECE3C6
:1001E0009E2EEAE4E6BFE2E0EB1511F4772404C0AA
:1001F000E1E0EB1509F47E2EE4E0E9BFE1E0E093F5
:1002000072000895E0E0E093720088247724E9B753
:10021000EB7FE9BFEFB5ED7FEFBDEFB5EE7FEFBD53
:10022000EFB5EF77EFBDEFB5EF7BEFBDE0E0E2BFFD
:100230000895992019F4E2E0AE2E07C0E4E6E9152E
:1002400019F4E1E0AE2E01C0AA24EA2DF0E03097C7
:10025000D1F4B6DF8820B1F0E1E0E71519F4A92D5B
:10026000B0E006C0E92DF0E0A4E6B0E0AE1BBF0BA5
:10027000EAE4F0E048D0AE2FBF2FE4E6F0E05DD036
:10028000E6BF88240DC0E230A0E0FA0719F4BADF17
:10029000C19806C0E130A0E0FA0711F4B3DFC19ABB
:1002A00008950A930A2F900E03C00A930A2F901AFA
:1002B00009910895E92D0895EA93EFB7EA93E1E0F3
:1002C0007E268E2EE991EFBFE9911895E6B3E09571
:1002D00008952A931A930A9308952A81198108810F
:1002E0000895F195E195F040089581E100241118F9
:1002F00005C010F40A0E1B1E16940794F795E79597
:100300008A95B9F708951ED0F0DF0EF4EADF08955C
:100310000024112490E1AA0FBB1F001C111C0E1A0F
:100320001F0A18F40E0E1F1E01C0A1609A9599F7BE
:10033000EA2FFB2FA02DB12D089504D0E9DF0EF494
:10034000D0DF0895E894F7FF02C0CBDF6894B7FFD1
:1003500006C0B195A195B04000F8039400FA089545
:00000001FF
