:0C0000000FC0C8C0FDCFFCCFFBCFFACF73
:10000C00F9CFF8CFF7CFF6CF0000000003000400C3
:10001C0014000000F894EE27ECBBE5BF8DE0A2E0E5
:10002C00ED938A95E9F780E4A0E6ED938A95E9F7DC
:10003C00E8E1F0E0C8953196802DC8953196902D69
:10004C000097B9F0C8953196A02DC8953196B02D72
:10005C00C8953196102CC89531966E2F7F2FF02DA8
:10006C00E12DC89531960D920197D9F7E62FF72F10
:10007C00E1CFEFE9EDBFC0E726C0A0E0B0E037D09C
:10008C004E2EE0E8E6BDE0E0E6BDE1E0E7BBEAE1EC
:10009C00E8BBE0E0EFBDE3BFE2BFE9BDEFEFE41585
:1000AC0011F4E2E34E2E8ED0E0E0E9BFE0E4EBBFCA
:1000BC00E2E0E5BFE0E4EABFE0E8E8B9E0E0E3B99C
:1000CC00E4BBE6B90895F894D8DF789443D01AD0FD
:1000DC00FECFFFCF86D00A2F1B812C81E199FECF5A
:1000EC001EBB0DBBE29AE19A80D0259608957AD07A
:1000FC000A2F1B2FE199FECF0EBBE09AEDB30991AD
:10010C0019910895662029F1E52DF0E0E130A0E089
:10011C00FA0729F4E4E1E41508F44E1A17C0E230AA
:10012C00A0E0FA0731F4E4E64E1610F4E4E14E0ECA
:10013C000DC0E330A0E0FA0739F4E0E0F0E0FA9308
:10014C00EA93A42DC7DF02C05524089566245524D4
:10015C0039D00895E3EAEFBDE3E0E3BF08953ED064
:10016C00E87019F03BD0E07109F402C0E3E00895A7
:10017C0035D0E87011F0E1E0089530D0E07111F065
:10018C00E2E00895E0E008950A921A92FA926A93D6
:10019C007A938A939A93AA93BA93EA93FA93EFB7C2
:1001AC00EA93DDDF5E2E6394E991EFBFF991E9915B
:1001BC00B991A9919991899179916991F990199035
:1001CC0009901895A42DB0E0EFEFF0E024D0AE2FFD
:1001DC00BF2FE4E6F0E039D0E6BF0895E6B3E09532
:1001EC0008952A931A930A9308952A8119810881F4
:1001FC000895F195E195F040089581E100241118DE
:10020C0005C010F40A0E1B1E16940794F795E7957B
:10021C008A95B9F708951ED0F0DF0EF4EADF089541
:10022C000024112490E1AA0FBB1F001C111C0E1AF4
:10023C001F0A18F40E0E1F1E01C0A1609A9599F7A3
:10024C00EA2FFB2FA02DB12D089504D0E9DF0EF479
:10025C00D0DF0895E894F7FF02C0CBDF6894B7FFB6
:10026C0006C0B195A195B04000F8039400FA08952A
:00000001FF
